:020000040800F2
:1000000000280020650C0008010C0008090C0008FD
:10001000110C0008190C0008210C00080000000059
:10002000000000000000000000000000290C000893
:10003000350C000800000000410C00084D0C0008C1
:10004000AD0C0008AD0C0008AD0C0008AD0C0008AC
:10005000AD0C0008AD0C0008AD0C0008AD0C00089C
:10006000AD0C0008AD0C0008AD0C0008AD0C00088C
:10007000AD0C0008AD0C0008AD0C0008AD0C00087C
:10008000AD0C0008AD0C0008AD0C0008AD0C00086C
:10009000AD0C0008AD0C0008AD0C0008AD0C00085C
:1000A000AD0C0008AD0C0008AD0C0008AD0C00084C
:1000B000AD0C0008AD0C000800000000AD0C0008FD
:1000C000AD0C00080000000000000000AD0C0008AE
:1000D00000000000AD0C0008AD0C0008000000009E
:1000E000AD0C0008AD0C0008AD0C000800000000CD
:1000F0000000000000000000000000000000000000
:0C01000000000000000000005FF808F1A3
:10010C0010B5054C237833B9044B13B10448AFF345
:10011C0000800123237010BD0C00002000000000A3
:10012C00C01A000808B5034B1BB103490348AFF3D1
:10013C00008008BD0000000010000020C01A00085C
:10014C0080B582B000AF786001220121BF4801F078
:10015C008FF801220221BD4801F08AF80122042106
:10016C00BA4801F085F801220821B84801F080F85E
:10017C0001221021B54801F07BF801222021B3485F
:10018C0001F076F801224021B04801F071F87B684B
:10019C00092B00F2818101A252F823F0D101000851
:1001AC001902000861020008A9020008F102000807
:1001BC003903000881030008C90300081104000872
:1001CC005D04000800220121A04801F051F8002232
:1001DC0002219E4801F04CF8002204219B4801F0BA
:1001EC0047F800220821994801F042F8002210211A
:1001FC00964801F03DF800222021944801F038F88F
:10020C0001224021914801F033F869E101220121DA
:10021C008E4801F02DF8002202218C4801F028F8BC
:10022C0000220421894801F023F801220821874883
:10023C0001F01EF801221021844801F019F8012266
:10024C002021824801F014F8012240217F4801F05E
:10025C000FF845E1002201217C4801F009F8002249
:10026C0002217A4801F004F801220421774800F0B9
:10027C00FFFF00220821754800F0FAFF0022102130
:10028C00724800F0F5FF01222021704800F0F0FFC9
:10029C00002240216D4800F0EBFF21E100220121FA
:1002AC006A4800F0E5FF00220221684800F0E0FFF8
:1002BC0000220421654800F0DBFF0022082163487E
:1002CC0000F0D6FF01221021604800F0D1FF01227E
:1002DC0020215E4800F0CCFF002240215B4800F05A
:1002EC00C7FFFDE001220121584800F0C1FF0022A8
:1002FC000221564800F0BCFF00220421534800F0B4
:10030C00B7FF01220821514800F0B2FF0122102151
:10031C004E4800F0ADFF002220214C4800F0A8FF11
:10032C0000224021494800F0A3FFD9E0002201211E
:10033C00464800F09DFF01220221444800F098FF3E
:10034C0000220421414800F093FF002208213F487D
:10035C0000F08EFF012210213C4800F089FF0022A2
:10036C0020213A4800F084FF00224021374800F059
:10037C007FFFB5E000220121344800F079FF012213
:10038C000221324800F074FF002204212F4800F0B3
:10039C006FFF002208212D4800F06AFF0022102177
:1003AC002A4800F065FF00222021284800F060FF59
:1003BC0000224021254800F05BFF91E00022012142
:1003CC00224800F055FF00220221204800F050FF87
:1003DC00002204211D4800F04BFF012208211B487C
:1003EC0000F046FF01221021184800F041FF0122C5
:1003FC002021164800F03CFF01224021134800F058
:10040C0037FF6DE000220121104800F031FF00227F
:10041C0002210E4800F02CFF002204210B4800F0B2
:10042C0027FF00220821094800F022FF002210219A
:10043C00064800F01DFF00222021044800F018FFA0
:10044C0000224021014800F013FF49E0000C01405C
:10045C0000220121244800F00BFF00220221224837
:10046C0000F006FF002204211F4800F001FF0022CB
:10047C0008211D4800F0FCFE012210211A4800F052
:10048C00F7FE00222021184800F0F2FE0022402145
:10049C00154800F0EDFE23E000220121124800F087
:1004AC00E7FE00220221104800F0E2FE00220421A7
:1004BC000D4800F0DDFE002208210B4800F0D8FEAC
:1004CC0000221021084800F0D3FE0022202106480B
:1004DC0000F0CEFE00224021034800F0C9FE00BF10
:1004EC0000BF0837BD4680BD000C014080B582B00E
:1004FC0000AF78607B68092B00F2C98101A252F829
:10050C0023F000BF390500088F050008E505000839
:10051C003B06000891060008E70600083D070008A6
:10052C0093070008E90700084508000800224FF46B
:10053C000071C04800F09CFE00224FF48061BD4861
:10054C0000F096FE00224FF40061BA4800F090FED5
:10055C0000224FF48051B74800F08AFE00224FF47D
:10056C000051B44800F084FE00224FF48041B148A1
:10057C0000F07EFE01224FF40041AE4800F078FE00
:10058C0085E101224FF40071AA4800F071FE0022AF
:10059C004FF48061A74800F06BFE00224FF400611D
:1005AC00A44800F065FE01224FF48051A14800F0F0
:1005BC005FFE01224FF400519E4800F059FE0122CB
:1005CC004FF480419B4800F053FE01224FF4004150
:1005DC00984800F04DFE5AE100224FF40071954806
:1005EC0000F046FE00224FF48061924800F040FE7D
:1005FC0001224FF400618F4800F03AFE00224FF4C4
:10060C0080518C4800F034FE00224FF40051894890
:10061C0000F02EFE01224FF48041864800F028FEA7
:10062C0000224FF40041834800F022FE2FE100220B
:10063C004FF400717F4800F01BFE00224FF48061E4
:10064C007C4800F015FE00224FF40061794800F060
:10065C000FFE00224FF48051764800F009FE012273
:10066C004FF40051734800F003FE01224FF4804117
:10067C00704800F0FDFD00224FF400416D4800F081
:10068C00F7FD04E101224FF400716A4800F0F0FD1F
:10069C0000224FF48061674800F0EAFD00224FF41D
:1006AC000061644800F0E4FD01224FF48051614880
:1006BC0000F0DEFD01224FF400515E4800F0D8FD41
:1006CC0000224FF480415B4800F0D2FD00224FF431
:1006DC000041584800F0CCFDD9E000224FF40071E5
:1006EC00544800F0C5FD01224FF48061514800F0E0
:1006FC00BFFD00224FF400614E4800F0B9FD00220E
:10070C004FF480514B4800F0B3FD01224FF40051DF
:10071C00484800F0ADFD00224FF48041454800F000
:10072C00A7FD00224FF40041424800F0A1FDAEE0CD
:10073C0000224FF400713F4800F09AFD01224FF463
:10074C0080613C4800F094FD00224FF40061394870
:10075C0000F08EFD00224FF48051364800F088FDE9
:10076C0000224FF40051334800F082FD00224FF478
:10077C008041304800F07CFD00224FF400412D48B0
:10078C0000F076FD83E000224FF40071294800F060
:10079C006FFD00224FF48061264800F069FD0022B5
:1007AC004FF40061234800F063FD01224FF48051A7
:1007BC00204800F05DFD01224FF400511D4800F06F
:1007CC0057FD01224FF480411A4800F051FD0122DF
:1007DC004FF40041174800F04BFD58E000224FF455
:1007EC000071144800F044FD00224FF48061114860
:1007FC0000F03EFD00224FF400610E4800F038FD81
:10080C0000224FF480510B4800F032FD00224FF4CF
:10081C000051084800F02CFD00224FF4804105489F
:10082C0000F026FD00224FF40041024800F020FDAC
:10083C002DE000BF000C014000224FF4007116485F
:10084C0000F016FD00224FF48061134800F010FDFB
:10085C0000224FF40061104800F00AFD00224FF412
:10086C0080510D4800F004FD01224FF400510A485C
:10087C0000F0FEFC00224FF48041074800F0F8FC29
:10088C0000224FF40041044800F0F2FC00BF00BF0E
:10089C000837BD4680BD00BF000C014080B584B058
:1008AC0000AF00F0FFF900F0EDF800F027F900239D
:1008BC00FB600023BB6000233B6003237B60BB68B1
:1008CC00022B58D0BB68022B00F3CD80BB68002BE9
:1008DC0004D0BB68012B00F08980C4E00122042104
:1008EC00674800F0C5FC00220821654800F0C0FCF8
:1008FC0000221021624800F0BBFC0022202160483D
:10090C0000F0B6FC002240215D4800F0B1FC012251
:10091C0080215B4800F0ACFCFB68C3F105033B6035
:10092C003868FFF70DFC7B68002B01D102237B603C
:10093C007868FFF7DBFDFB680133FB607B68013BEC
:10094C007B60FB68032B0EDD002220214C4800F05D
:10095C008FFC012240214A4800F08AFC00228021B1
:10096C00474800F085FCFB68052B7ED10223BB6059
:10097C000023FB6079E000220421414800F078FC60
:10098C00002208213E4800F073FC012210213C4853
:10099C0000F06EFC01222021394800F069FC002295
:1009AC004021374800F064FC00228021344800F0DC
:1009BC005FFCFB68C3F103033B603868FFF7C0FBC7
:1009CC007B68002B01D105237B607868FFF78EFDD7
:1009DC00FB680133FB607B68013B7B60FB68032B8E
:1009EC0045D10123BB600023FB6040E000220421C1
:1009FC00234800F03DFC01220821214800F038FC7E
:100A0C00002210211E4800F033FC012220211C483A
:100A1C0000F02EFC00224021194800F029FC002295
:100A2C008021174800F024FCFB68C3F102033B60F3
:100A3C003868FFF785FB7B68002B01D103237B60B3
:100A4C007868FFF753FDFB680133FB607B68013B63
:100A5C007B60FB68022B0CD10023BB600023FB6086
:100A6C0003237B6005E000BF04E000BF02E000BF91
:100A7C0000E000BF4FF47A7000F076F91FE700BF7A
:100A8C000008014080B590B000AF07F11803282290
:100A9C000021184600F0E2FF3B1D00221A605A604C
:100AAC009A60DA601A610223BB610123BB621023D6
:100ABC00FB6200237B6307F11803184600F0F0FB80
:100ACC000346002B01D000F06DF80F237B60002350
:100ADC00BB600023FB6000233B6100237B613B1D5B
:100AEC000021184600F05EFE0346002B01D000F0FA
:100AFC0059F800BF4037BD4680BD000080B586B0B8
:100B0C0000AF07F1080300221A605A609A60DA609D
:100B1C00214B9B69204A43F0040393611E4B9B6954
:100B2C0003F004037B607B681B4B9B691A4A43F000
:100B3C0008039361184B9B6903F008033B603B6807
:100B4C000022FC21154800F093FB00224FF67F6138
:100B5C00134800F08DFBFC23BB600123FB600023DA
:100B6C003B6102237B6107F1080319460B4800F037
:100B7C0003FA4FF67F63BB600123FB6000233B61EC
:100B8C0002237B6107F108031946054800F0F4F9CC
:100B9C0000BF1837BD4680BD001002400008014060
:100BAC00000C014080B400AF72B600BF00BFFDE77F
:100BBC0080B483B000AF0E4B9B690D4A43F0010328
:100BCC0093610B4B9B6903F001037B607B68084BC3
:100BDC00DB69074A43F08053D361054BDB6903F0B3
:100BEC0080533B603B6800BF0C37BD4680BC7047F0
:100BFC000010024080B400AF00BFFDE780B400AF2E
:100C0C0000BFFDE780B400AF00BFFDE780B400AFCC
:100C1C0000BFFDE780B400AF00BFFDE780B400AFBC
:100C2C0000BFBD4680BC704780B400AF00BFBD465E
:100C3C0080BC704780B400AF00BFBD4680BC70471D
:100C4C0080B500AF00F074F800BF80BD80B400AF79
:100C5C0000BFBD4680BC7047FFF7F8FF0B480C493E
:100C6C000C4A002302E0D458C4500433C4188C42FC
:100C7C00F9D3094A094C002301E013600432A24263
:100C8C00FBD300F0F3FEFFF709FE704700000020D5
:100C9C000C000020041B00080C0000202C0000207D
:100CAC00FEE7000080B500AF084B1B68074A43F015
:100CBC0010031360032000F02BF90F2000F008F84C
:100CCC00FFF776FF0023184680BD00BF00200240CE
:100CDC0080B582B000AF7860124B1A68124B1B784B
:100CEC0019464FF47A73B3FBF1F3B2FBF3F31846E6
:100CFC0000F035F90346002B01D001230EE07B6890
:100D0C000F2B0AD8002279684FF0FF3000F00BF956
:100D1C00064A7B681360002300E00123184608375D
:100D2C00BD4680BD0000002008000020040000200B
:100D3C0080B400AF054B1B781A46054B1B68134457
:100D4C00034A136000BFBD4680BC704708000020FA
:100D5C002800002080B400AF024B1B681846BD462B
:100D6C0080BC70472800002080B584B000AF78604C
:100D7C00FFF7F0FFB8607B68FB60FB68B3F1FF3FE7
:100D8C0005D00A4B1B781A46FB681344FB6000BF66
:100D9C00FFF7E0FF0246BB68D31AFA689A42F7D80D
:100DAC0000BF00BF1037BD4680BD00BF080000204B
:100DBC0080B485B000AF78607B6803F00703FB60FC
:100DCC000C4BDB68BB60BA684FF6FF031340BB608B
:100DDC00FB681A02BB68134343F0BF6343F4003350
:100DEC00BB60044ABB68D36000BF1437BD4680BCEF
:100DFC00704700BF00ED00E080B400AF044BDB682F
:100E0C001B0A03F007031846BD4680BC704700BFA1
:100E1C0000ED00E080B483B000AF03463960FB7195
:100E2C0097F90730002B0ADB3B68DAB20C4997F9CB
:100E3C0007301201D2B20B4483F800230AE03B685E
:100E4C00DAB20849FB7903F00F03043B1201D2B26A
:100E5C000B441A7600BF0C37BD4680BC704700BFF0
:100E6C0000E100E000ED00E080B489B000AFF86074
:100E7C00B9607A60FB6803F00703FB61FB69C3F19F
:100E8C000703042B28BF0423BB61FB690433062B27
:100E9C0002D9FB69033B00E000237B614FF0FF327A
:100EAC00BB6902FA03F3DA43BB681A407B699A40C8
:100EBC004FF0FF317B6901FA03F3D9437B680B4098
:100ECC00134318462437BD4680BC704780B582B0AA
:100EDC0000AF78607B68013BB3F1807F01D30123C5
:100EEC000FE00A4A7B68013B53600F214FF0FF3043
:100EFC00FFF790FF054B00229A60044B07221A6003
:100F0C00002318460837BD4680BD00BF10E000E046
:100F1C0080B582B000AF78607868FFF749FF00BFFA
:100F2C000837BD4680BD80B586B000AF0346B960BA
:100F3C007A60FB7300237B61FFF75EFF78617A6850
:100F4C00B9687869FFF790FF024697F90F301146A0
:100F5C001846FFF75FFF00BF1837BD4680BD80B550
:100F6C0082B000AF78607868FFF7B0FF0346184690
:100F7C000837BD4680BD000080B48BB000AF7860F0
:100F8C00396000237B6200233B6261E101227B6AB2
:100F9C0002FA03F3FB613B681B68FA691340BB61FF
:100FAC00BA69FB699A4240F050813B685B68974A8A
:100FBC0093425ED0954A934275D8954A934258D045
:100FCC00934A93426FD8934A934252D0914A934298
:100FDC0069D8914A93424CD08F4A934263D88F4A36
:100FEC00934246D08D4A93425DD8122B2AD8122BAD
:100FFC0059D801A252F823F07F10000859100008AC
:10100C006B100008AD100008B3100008B3100008F6
:10101C00B3100008B3100008B3100008B310000898
:10102C00B3100008B3100008B3100008B310000888
:10103C00B3100008B3100008B310000861100008CA
:10104C0075100008764A934213D02CE03B68DB689D
:10105C003B6229E03B68DB6804333B6224E03B687D
:10106C00DB6808333B621FE03B68DB680C333B6298
:10107C001AE03B689B68002B02D104233B6213E00F
:10108C003B689B68012B05D108233B627B68FA699E
:10109C001A6109E008233B627B68FA695A6103E034
:1010AC0000233B6200E000BFBB69FF2B01D87B68CB
:1010BC0001E07B6804337B61BB69FF2B02D87B6A40
:1010CC009B0002E07B6A083B9B003B617B691A68D2
:1010DC000F213B6901FA03F3DB431A40396A3B6980
:1010EC0001FA03F31A437B691A603B685B6803F0EF
:1010FC008053002B00F0A9804A4B9B69494A43F06E
:10110C0001039361474B9B6903F00103BB60BB6810
:10111C00454A7B6A9B08023352F82330FB607B6A9A
:10112C0003F003039B000F2202FA03F3DB43FA687C
:10113C001340FB607B683D4A93420DD07B683C4A70
:10114C00934207D07B683B4A934201D1022304E0CF
:10115C00032302E0012300E000237A6A02F0030279
:10116C0092009340FA681343FB602F497B6A9B08FB
:10117C000233FA6841F823203B685B6803F4801360
:10118C00002B06D02C4B9A682B49BB6913438B6000
:10119C0006E0294B9A68BB69DB43274913408B60F7
:1011AC003B685B6803F40013002B06D0224BDA6813
:1011BC002149BB691343CB6006E01F4BDA68BB695E
:1011CC00DB431D491340CB603B685B6803F4003381
:1011DC00002B06D0184B5A681749BB6913434B6058
:1011EC0006E0154B5A68BB69DB43134913404B604F
:1011FC003B685B6803F48033002B1FD00E4B1A68DE
:10120C000D49BB6913430B601FE000BF0000321097
:10121C0000003110000022100000211000001210FC
:10122C0000001110001002400000014000080140B5
:10123C00000C014000100140000401400B4B1A68E7
:10124C00BB69DB43094913400B607B6A01337B624A
:10125C003B681A687B6A22FA03F3002B7FF496AE84
:10126C0000BF00BF2C37BD4680BC70470004014056
:10127C0080B483B000AF78600B467B8013467B70E4
:10128C007B78002B03D07A887B681A6103E07B881B
:10129C001A047B681A6100BF0C37BD4680BC7047CE
:1012AC0080B586B000AF78607B68002B01D101233C
:1012BC0072E27B681B6803F00103002B00F087804F
:1012CC00924B5B6803F00C03042B0CD08F4B5B68C8
:1012DC0003F00C03082B12D18C4B5B6803F48033A6
:1012EC00B3F5803F0BD1894B1B6803F40033002B03
:1012FC006CD07B685B68002B68D101234CE27B6867
:10130C005B68B3F5803F06D1804B1B687F4A43F482
:10131C00803313602EE07B685B68002B0CD17B4B19
:10132C001B687A4A23F480331360784B1B68774A26
:10133C0023F4802313601DE07B685B68B3F5A02F5A
:10134C000CD1724B1B68714A43F4802313606F4BB2
:10135C001B686E4A43F4803313600BE06B4B1B68C5
:10136C006A4A23F480331360684B1B68674A23F482
:10137C00802313607B685B68002B13D0FFF7EAFCBB
:10138C00386108E0FFF7E6FC02463B69D31A642B90
:10139C0001D9032300E25D4B1B6803F40033002BDF
:1013AC00F0D014E0FFF7D6FC386108E0FFF7D2FC70
:1013BC0002463B69D31A642B01D90323ECE1534B4E
:1013CC001B6803F40033002BF0D100E000BF7B68F6
:1013DC001B6803F00203002B63D04C4B5B6803F0DB
:1013EC000C03002B0BD0494B5B6803F00C03082B50
:1013FC001CD1464B5B6803F48033002B16D1434B56
:10140C001B6803F00203002B05D07B681B69012BC2
:10141C0001D00123C0E13D4B1B6823F0F8027B682F
:10142C005B69DB00394913430B603AE07B681B694D
:10143C00002B20D0364B01221A60FFF78BFC386151
:10144C0008E0FFF787FC02463B69D31A022B01D94F
:10145C000323A1E12D4B1B6803F00203002BF0D0FA
:10146C002A4B1B6823F0F8027B685B69DB00274979
:10147C0013430B6015E0264B00221A60FFF76AFC41
:10148C00386108E0FFF766FC02463B69D31A022B71
:10149C0001D9032380E11D4B1B6803F00203002BD1
:1014AC00F0D17B681B6803F00803002B3AD07B68F3
:1014BC009B69002B19D0174B01221A60FFF74AFCCD
:1014CC00386108E0FFF746FC02463B69D31A022B51
:1014DC0001D9032360E10D4B5B6A03F00203002B7F
:1014EC00F0D0012000F09CFA1CE00A4B00221A609C
:1014FC00FFF730FC38610FE0FFF72CFC02463B692C
:10150C00D31A022B08D9032346E100BF0010024076
:10151C000000424280044242924B5B6A03F0020399
:10152C00002BE9D17B681B6803F00403002B00F04F
:10153C00A6800023FB758B4BDB6903F08053002BDB
:10154C000DD1884BDB69874A43F08053D361854BBF
:10155C00DB6903F08053BB60BB680123FB75824BD6
:10156C001B6803F48073002B18D17F4B1B687E4AD9
:10157C0043F480731360FFF7EDFB386108E0FFF76D
:10158C00E9FB02463B69D31A642B01D9032303E11F
:10159C00754B1B6803F48073002BF0D07B68DB6801
:1015AC00012B06D16F4B1B6A6E4A43F00103136289
:1015BC002DE07B68DB68002B0CD16A4B1B6A694AF7
:1015CC0023F001031362674B1B6A664A23F0040382
:1015DC0013621CE07B68DB68052B0CD1614B1B6A2A
:1015EC00604A43F0040313625E4B1B6A5D4A43F08E
:1015FC00010313620BE05B4B1B6A5A4A23F0010395
:10160C001362584B1B6A574A23F0040313627B681E
:10161C00DB68002B15D0FFF79DFB38610AE0FFF764
:10162C0099FB02463B69D31A41F28832934201D9A5
:10163C000323B1E04B4B1B6A03F00203002BEED0EB
:10164C0014E0FFF787FB38610AE0FFF783FB0246E3
:10165C003B69D31A41F28832934201D903239BE0B0
:10166C00404B1B6A03F00203002BEED1FB7D012BD8
:10167C0005D13C4BDB693B4A23F08053D3617B683B
:10168C00DB69002B00F08780364B5B6803F00C03A2
:10169C00082B61D07B68DB69022B46D1334B0022CF
:1016AC001A60FFF757FB386108E0FFF753FB02465F
:1016BC003B69D31A022B01D903236DE0294B1B681C
:1016CC0003F00073002BF0D17B681B6AB3F5803FED
:1016DC0008D1244B5B6823F400327B689B6821495A
:1016EC0013434B601F4B5B6823F474127B68196ABD
:1016FC007B685B6A0B431B4913434B601B4B0122FA
:10170C001A60FFF727FB386108E0FFF723FB02465E
:10171C003B69D31A022B01D903233DE0114B1B6803
:10172C0003F00073002BF0D035E0104B00221A6050
:10173C00FFF710FB386108E0FFF70CFB02463B6932
:10174C00D31A022B01D9032326E0064B1B6803F0A6
:10175C000073002BF0D11EE07B68DB69012B07D1F5
:10176C00012319E00010024000700040600042426A
:10177C000B4B5B68FB60FB6803F480327B681B6A75
:10178C009A4206D1FB6803F470127B685B6A9A423A
:10179C0001D0012300E0002318461837BD4680BD58
:1017AC000010024080B584B000AF786039607B686F
:1017BC00002B01D10123D0E06A4B1B6803F0070317
:1017CC003A689A4210D9674B1B6823F007026549A7
:1017DC003B6813430B60634B1B6803F007033A68C9
:1017EC009A4201D00123B8E07B681B6803F0020326
:1017FC00002B20D07B681B6803F00403002B05D062
:10180C00594B5B68584A43F4E06353607B681B6830
:10181C0003F00803002B05D0534B5B68524A43F48A
:10182C0060535360504B5B6823F0F0027B689B68FD
:10183C004D4913434B607B681B6803F00103002B7D
:10184C0040D07B685B68012B07D1474B1B6803F4C6
:10185C000033002B15D101237FE07B685B68022BE2
:10186C0007D1414B1B6803F00073002B09D10123F6
:10187C0073E03D4B1B6803F00203002B01D10123E5
:10188C006BE0394B5B6823F003027B685B6836497D
:10189C0013434B60FFF75EFAF8600AE0FFF75AFA61
:1018AC000246FB68D31A41F28832934201D90323D2
:1018BC0053E02D4B5B6803F00C027B685B689B006C
:1018CC009A42EBD1274B1B6803F007033A689A4204
:1018DC0010D2244B1B6823F0070222493B681343A8
:1018EC000B60204B1B6803F007033A689A4201D047
:1018FC00012332E07B681B6803F00403002B08D043
:10190C00194B5B6823F4E0627B68DB681649134370
:10191C004B607B681B6803F00803002B09D0124B4B
:10192C005B6823F460527B681B69DB000E49134330
:10193C004B6000F021F802460B4B5B681B0903F06F
:10194C000F030A49CB5C22FA03F3094A1360094BD3
:10195C001B681846FFF7BCF9002318461037BD4624
:10196C0080BD00BF0020024000100240D81A0008C1
:10197C00000000200400002080B487B000AF0023DA
:10198C00FB600023BB6000237B6100237B60002392
:10199C003B611E4B5B68FB60FB6803F00C03042B84
:1019AC0002D0082B03D027E0194B3B6127E0FB68E2
:1019BC009B0C03F00F03174AD35C7B60FB6803F4AA
:1019CC008033002B10D0114B5B685B0C03F00103D0
:1019DC00114AD35CBB607B680D4A03FB02F2BB6807
:1019EC00B2FBF3F37B6104E07B680C4A02FB03F36C
:1019FC007B617B693B6102E0054B3B6100BF3B694E
:101A0C0018461C37BD4680BC704700BF0010024012
:101A1C0000127A00E81A0008F81A000800093D00C4
:101A2C0080B485B000AF78600A4B1B680A4AA2FBF1
:101A3C0003235B0A7A6802FB03F3FB6000BFFB68BD
:101A4C005A1EFA60002BF9D100BF00BF1437BD46F7
:101A5C0080BC704700000020D34D62100346024446
:101A6C00934200D1704703F8011BF9E770B50026CB
:101A7C000C4D0D4C641BA410A64209D100F01AF8B1
:101A8C0000260A4D0A4C641BA410A64205D170BD59
:101A9C0055F8043B98470136EEE755F8043B984758
:101AAC000136F2E7FC1A0008FC1A0008FC1A0008C0
:101ABC00001B0008F8B500BFF8BC08BC9E46704778
:0C1ACC00F8B500BFF8BC08BC9E4670478F
:101AD80000000000000000000102030406070809D6
:101AE80002030405060708090A0B0C0D0E0F101057
:041AF80001020000E7
:041AFC0031010008AC
:041B00000D010008CB
:0C1B040000127A00100000000100000038
:0400000508000C657E
:00000001FF
